:1000000003308A00EE2B0000FF00030E8301A100E5
:100010000A08A0008A010408A2007708A300780853
:10002000A4007908A5007A08A60003170D08031399
:10003000A70003170F080313A80003170C080313E6
:10004000A90003170E080313AA00831383128C3030
:100050008400801E2D288C1A4E2822088400230834
:10006000F7002408F8002508F9002608FA002708F8
:1000700003178D000313280803178F0003132908A3
:1000800003178C0003132A0803178E00031320089C
:100090008A00210E8300FF0E7F0E09008A110A12CA
:1000A000712849376739E5396510E330E432EE30BD
:1000B000203861396110E3376E33E93375396139BE
:1000C000203965366F3520326510EC3020336F39BA
:1000D000ED302034E836ED397332E426CD3CF906B4
:1000E0000A008C1E71281A080C1E74289900B3008F
:1000F00033080D3C031984283408B40A353E8400C3
:10010000831333088000852849148C128A110A123F
:100110002D28683084008313000803199C280630BA
:10012000F800F701F70B9228F80B91287B30F700C5
:10013000F70B9828800B8F2808000830F80004304F
:10014000F700F70BA1288711B1113108831687003A
:100150000330F700F70BAA288312EB0D0712031CDC
:10016000B7283116310883168700BB288312311255
:1001700031088316870000008312B11531088316F9
:1001800087008312871DC228F80B9F280430F700D0
:10019000F70BC8288711B1113108831687000000BA
:1001A000831231163108831687000330F700F70BEE
:1001B000D7280330F700F70BDB288312B11531087D
:1001C000831687008312871DE328F8010330F700A8
:1001D000F70BE828071A78148711B1113108831634
:1001E00087008312071231123108831687008312A9
:1001F000080031163108831687000430F700F70B2A
:10020000FF288312B1153108831687000330F700E9
:10021000F70B082983120712311231088316870061
:100220000430F700F70B122983128711B11131083E
:1002300083168700D0308312EB009D206908EB0005
:100240009D206A08EB009D2031123108831687003B
:1002500000008312B1153108831687008312871DB1
:100260002F290430F700F70B332936290000311607
:100270003108831687000430F700F70B3D298312FD
:10028000080031163108831687008312B115310832
:100290008316870005308312E80089203210B210DF
:1002A000B21332160730E9003208EA00F9200530AF
:1002B000E800892083168C16C03083128B048A11C3
:1002C0000A12082C0B08DC008B13831603178C17FB
:1002D0000C140000000083120313DC1B8B170317A0
:1002E0000C087F390319B8290313DC0003170D0824
:1002F0000313DD0003170F080313DE005C080C1E58
:100300007F2999005D0803178D0003135E0803170A
:100310008F0003130B08DF008B13831603178C1752
:100320000C140000000083120313DF1B8B1703174C
:100330000C0D0E0D7F390319B8290313DC000317C8
:100340000D080313DD0003170F080313DE005C081C
:100350000C1EA82999005D0803178D0003135E0881
:1003600003178F008D0A03198F0A031362290317DD
:1003700003138A110A120F2CE80167086802031898
:10038000DE2968086407F8006508FA000318FA0A0D
:100390007808E9007A08EA006808660762078400BE
:1003A0008313631883170008EB0069088400831324
:1003B0006A1883176B088000E80ABD296508FA00EF
:1003C000640884008313651883170008F800080088
:1003D000F701F8016B0803106C18F707F70CF80C1D
:1003E000EC18F707F70CF80C6C19F707F70CF80C7A
:1003F000EC19F707F70CF80C6C1AF707F70CF80C68
:10040000EC1AF707F70CF80C6C1BF707F70CF80C55
:10041000EC1BF707F70CF80C0800E701E5010A30C0
:10042000E600E40162086304031D192A0030F800A5
:10043000E72A6708E70A62078400831363188317B3
:100440000008E80068082D3C031D322A0130E50051
:100450006708E70A6207840083136318831700089C
:10046000E8003F2A68082B3C031D3F2A6708E70A7B
:10047000620784008313631883170008E800680884
:100480002F3C0318DD2A6808393C031CDD2A680864
:10049000303C031D6B2A67086207840083136318CE
:1004A00083170008783C03195F2A670862078400F5
:1004B0008313631883170008583C031D6B2A103000
:1004C000E600E70A6708E70A6207840083136318F7
:1004D00083170008E80066080A3C031D8B2A680899
:1004E0002F3C03188A2A6808393C031C8A2A0A30E0
:1004F000EB006408EC00E821303068027807E40083
:100500006708E70A620784008313631883170008EB
:10051000E8006F2ADD2A6608103C031DDD2A680802
:10052000603C03189A2A68087A3C031C9A2A6808D7
:10053000DF399B2A6808E80068082F3C0318A42AC2
:100540006808393C0318AC2A6808403C0318DD2AC7
:100550006808463C031CDD2A68082F3C0318BD2AA6
:100560006808393C031CBD2A640EE900F030E90537
:10057000303068026907E400C62A640EE900F030F2
:10058000E905413068020A3E6907E4006708E70AA6
:10059000620784008313631883170008E800680863
:1005A000603C0318DA2A68087A3C031CDA2A6808D7
:1005B000DF39DB2A6808E8009C2A650BE52A660813
:1005C0000A3C031DE52AE409E40A6408F80008006F
:1005D0006808EB000A30EC006C08F8016B020318A5
:1005E000F42A6B08F700002BF7010830ED00EB0D43
:1005F000F70D6C0877020318F700F80DED0BF72ADA
:100600007808E9006908EB000A30EC00E821780876
:100610006802EA00690EF700F030F70577086A040F
:10062000F8000800E3013530E200E5014A30E4005B
:10063000E6010230E700BC21E3013530E200E501CC
:100640004D30E4000230E600E700BC21E301353024
:10065000E200E5015030E4000430E6000230E7003B
:10066000BC21E3013530E200E5015330E4000630FF
:10067000E6000230E700BC21E3013530E200E5018D
:100680005630E4000830E6000230E700BC21E30108
:100690003530E200E5015930E4000A30E60002306E
:1006A000E700BC21E3014A30E2000D227808DC00BB
:1006B000E3014D30E2000D227808DD00E301503007
:1006C000E2000D227808DE00E3015330E2000D2243
:1006D0007808DF00E3015630E2000D227808E000E0
:1006E000E3015930E2000D227808E1005F08E200E2
:1006F0006008E3006108E4005C08E5005D08E600CE
:100700005E08E7006708E800E8227808E800E901E9
:100710007808EA00F9200530E80089206608E8003A
:10072000E8227808E8000130E9007808EA00F920BA
:100730000530E80089206508E800E8227808E8002C
:100740000230E9007808EA00F9200530E800892045
:10075000E801E8227808E8000330E9007808EA00B8
:10076000F9200530E80089206208E800E8227808CE
:10077000E8000430E9007808EA00F9200530E800D4
:1007800089206308E800E8227808E8000530E900DD
:100790007808EA00F9200530E80089206408E800BC
:1007A000E8227808E8000630E9007808EA00F92035
:1007B0000530E8008920353084008313F7011430B8
:1007C000F80078080319E92B77088000840AF80BF1
:1007D000E42BB40149108A110A12112C03081F39A5
:1007E0008300813083169900A630980090308312E0
:1007F0009800FF30B100491083161F149F141F1575
:100800009F1107309C0083138312AB01AC01412977
:10081000513003178D0000308F00031362294918EF
:06082000122B0F2C6300F7
:02400E00323F3F
:00000001FF
;PIC16F877A
;CRC=02D0  CREATED="20-mar-18 21:42"
